:020000040801F1
:10000000D0B4002001010108050101080701010821
:10001000090101080B0101080D01010800000000A1
:1000200000000000000000000000000011010108B5
:100030000F010108000000003F2E010875070108AC
:10004000BD070108BF070108C1070108C307010870
:10005000C5070108C7070108F39C0108D96D01080D
:10006000C9070108CB070108CD070108CF07010820
:10007000D1070108D3070108D5070108D7070108F0
:10008000D9070108DB070108DD070108DF070108C0
:10009000E1070108E3070108E5070108E707010890
:1000A000E9070108EB070108ED070108EF07010860
:1000B000F1070108A5930108F3070108F5070108F6
:1000C000F7070108F9070108FB070108FD07010808
:1000D000FF070108F9990108299A01080108010898
:1000E00003080108050801080708010800000000CE
:1000F0000000000000000000000000000000000000
:1001000004480047FEE7FEE7FEE7FEE7FEE7FEE7FE
:10011000FEE700001901010800F002F800F07DF888
:100120000AA090E8000C82448344AAF10107DA4552
:1001300001D100F072F8AFF2090EBAE80F0013F027
:10014000010F18BFFB1A43F001031847A863010011
:10015000C86301000A444FF0000C10F8013B13F093
:10016000070408BF10F8014B1D1108BF10F8015B10
:10017000641E05D010F8016B641E01F8016BF9D103
:1001800013F0080F1EBF10F8014BAD1C0C1B09D15A
:100190006D1E58BF01F801CBFAD505E014F8016BCC
:1001A00001F8016B6D1EF9D59142D6D3704700005E
:1001B0000023002400250026103A28BF78C1FBD870
:1001C000520728BF30C148BF0B607047662915F041
:1001D000D585652915F0D285642911F0FB8278292F
:1001E00011F03483732912F0CC82002070471FB5C0
:1001F0009DE8030011F0EEFF12F0D4FD0400002092
:10020000002114F063FE401C60600020002114F007
:1002100073FEE0601FBD10B510BD13F0BDF81146B0
:10022000FFF7E5FF00F07BFA13F006FB03B4FFF7DE
:10023000F2FF03BC13F036FB02480349034A044BA8
:1002400070470000D0A00020D0B40020D0B0002023
:10025000D0B0002000B585B0032000214FF400721B
:10026000FE4BCDE90132CDE9031009200346FC4ADB
:100270000090FC4804F077FD05B000BD2DE9F04F7B
:10028000ADF2144D4FF0000900200A9082464FF065
:10029000010BFF20089005F067FA03F059F909A94E
:1002A000012003F0D2FFF049086009A9032003F000
:1002B000CCFFEE49086009A9022003F0C6FFEC4913
:1002C000086009A9042003F0C0FFEA490860002083
:1002D00004F094FAE84908600BF00CF903200021BF
:1002E0004FF49962E54BCDE90132CDE903100A20C4
:1002F0000346E34A0090E34804F035FD0320002163
:100300004FF48052E04BCDE90132CDE903100B20D0
:100310000346DE4A0090DE4804F025FD032000215C
:100320004FF40072DB4BCDE90132CDE903100C2014
:100330000346D94A0090D94804F015FDD848007802
:10034000012801D1FFF786FF052007F048FA0720B2
:1003500007F045FAE2E10120099021200A90D148F6
:10036000007800286CD103200AA988AA0123CDE9CE
:10037000002102902122CC49A1200FF051F8C0B2F7
:1003800009909DF82400002845D188A80FF080FE30
:10039000044634B920460FF06FF90DF2144DBDE854
:1003A000F08FC2A1204610F0D6F80546C1A12869F9
:1003B00011F0A4FE18B120460FF05EF9EDE7BEA1E2
:1003C000204610F0C8F805463221BE4811F021FE43
:1003D000BDA1284610F0BFF8D0F81080404611F0BB
:1003E00023FD0646B8A1284610F0B5F83246076945
:1003F0003946B44811F08EFD0120AA490870B14871
:1004000011F012FD86B23246AE49052006F09FFF7C
:1004100020460FF031F99DF8240088B109AA002187
:100420009148006804F01EF810220121072006F010
:10043000A2FD072007F0D3F98B48006804F02DF9DE
:100440009848007800287DD003200AA988AA0123B3
:10045000CDE90021029021229349A0200EF0E0FF77
:10046000C0B209909DF8240000286CD188A80FF034
:100470000FFE04461CB920460FF0FEF88DE78BA155
:10048000204610F068F805468AA1286911F036FE6A
:1004900018B120460FF0F0F87FE700208C49087073
:1004A00085A1204610F057F805468A4800780028B4
:1004B0007ED1FF208749087087A1284610F04BF8AD
:1004C000D0F81080404611F0AFFC064682A12846C5
:1004D00010F041F83246076939460BA811F01AFDB1
:1004E0000C227F490DF12E000AF0C6F87C4807F077
:1004F000A4FB7B4807F0F6FB7AA1284610F02BF806
:10050000D0F81080404611F08FFC064675A12846B1
:1005100010F021F83246076939460BA811F0FAFCB1
:10052000022272490BA80AF0A7F80A206F49087046
:100530006FA1284610F00FF80669304611F0AAFBAB
:100540006E4901E089E070E008606DA1284610F076
:1005500002F8D0F81080404611F066FC064668A10B
:1005600028460FF0F8FF3246076939460BA811F00C
:10057000D1FC062264490BA80AF07EF8A0208DF871
:1005800014005A48007809F00AFF8DF8150002217E
:1005900005A809F0DCFE8DF81600032205A94FF42A
:1005A000A06005F093F9A0208DF81400564800E0F3
:1005B00037E00168CDF815108088ADF819000721E3
:1005C00005A809F0C4FE8DF81B00082205A940F219
:1005D000055005F07BF9A0208DF81400474800680D
:1005E000000E8DF8180045480068000C8DF81700C3
:1005F00042480088000A8DF81600404800788DF8BF
:100600001500052105A809F0A2FE8DF819000622A3
:1006100005A94FF4A26005F059F93C48DDF8151022
:10062000016020460FF028F817E000201D490870EF
:1006300001202749087009AA00210B48006803F02F
:1006400011FF10220121072006F095FC072007F07A
:10065000C6F80548006804F020F859E0EC62002074
:10066000E86A00208B0C02084003002048030020A9
:100670004C0300204403002050030020CC0F002036
:10068000E8220020EFE70108EC220020E8620020C9
:1006900039F50108EC6A0020E872002021120208F6
:1006A000F803002055030020560300206D65737386
:1006B0006167650030000000726573756C74446199
:1006C000746100007E8B0020746F6B656E0000000B
:1006D0006E0000205403002074786461746500008B
:1006E0007C000020736563746F7200005800002066
:1006F0006C696D69744D6F6E65790000F8000020BB
:10070000636172645077640032050020F1000020BC
:10071000002305221946184604F026FE1BE610B5F4
:1007200004F012FF02F02CFC02F0DDFD0823094A60
:100730000021094804F0BFFA002004F0ABFE02F0EB
:10074000EFFE002010BD704770477047704770473C
:1007500070470000C80F00207D020108704700BFED
:10076000FEE700BFFEE700BFFEE700BFFEE7704701
:100770007047704710B52D480088401C2B490880F1
:1007800008460088B0F57A7F06DB002008802848FC
:100790000068401C2649086002F030FB04462548EA
:1007A0000078401C23490870204602F02BFB02F021
:1007B000EEFE02F0C7FD07F0D6F910BD7047704796
:1007C0007047704770477047704770477047704771
:1007D0007047704770477047704770477047704761
:1007E0007047704770477047704770477047704751
:1007F0007047704770477047704770477047704741
:100800007047704770477047704770477047704730
:100810007047704770477047704770477047704720
:100820007047704770477047704700008203002090
:10083000A8050020C503002010B50446CC4884421A
:1008400008D10121042000F02DFB0021042000F03C
:1008500029FB46E0C748844208D10121082000F066
:1008600021FB0021082000F01DFB3AE0C248844231
:1008700008D10121102000F015FB0021102000F00C
:1008800011FB2EE0BD48844208D10121202000F058
:1008900009FB0021202000F005FB22E0B84884423B
:1008A00008D10121402000F0FDFA0021402000F095
:1008B000F9FA16E0B348844208D10121802000F003
:1008C000F1FA0021802000F0EDFA0AE0AE488442FF
:1008D00007D10121801500F0E5FA0021A01500F0F4
:1008E000E1FA10BD10B50121084600F0DBFA002145
:1008F000012000F0D7FA10BD2DE9F0410246002595
:100900000026002000230024002791F803C00CF0EB
:100910000F0591F803C00CF0100CBCF1000F03D0D0
:1009200091F802C04CEA050591F800C0BCF1000F37
:1009300031D0146800202BE04FF0010C0CFA00F3CA
:10094000B1F800C00CEA03069E4220D183004FF0AC
:100950000F0C0CFA03F7BC4305FA03FC4CEA040441
:1009600091F803C0BCF1280F06D14FF0010C0CFA2E
:1009700000FCC2F814C00AE091F803C0BCF1480FB3
:1009800005D14FF0010C0CFA00FCC2F810C0401C5D
:100990000828D1D31460B1F800C0BCF1FF0F34DDDA
:1009A000546800202EE000F1080C4FF0010808FA0E
:1009B0000CF3B1F800C00CEA03069E4221D183007B
:1009C0004FF00F0C0CFA03F7BC4305FA03FC4CEA9A
:1009D000040491F803C0BCF1280F05D100F1080C04
:1009E00008FA0CF8C2F8148091F803C0BCF1480F63
:1009F00007D100F1080C4FF0010808FA0CF8C2F812
:100A00001080401C0828CED35460BDE8F0814FF61A
:100A1000FF710180022181700421C170704702467C
:100A2000002093680B400BB1012000E000207047CC
:100A30000146886880B2704702460020D3680B40A8
:100A40000BB1012000E0002070470146C86880B269
:100A5000704701617047416170470AB1016100E070
:100A600041617047C16070474FF480320A43826130
:100A70008161826182698269704702460020434B2E
:100A800018684FF68073184040EA021008433F4B45
:100A9000186070473E49C8617047F0B50A460023A8
:100AA00000240021002500F00046B6F1004F02D1DD
:100AB000364EF16901E0354E7168C0F3034583B2EB
:100AC00000F44016B6F5401F08D121F070612F4E9A
:100AD000766826F070662D4F7E6012E000F4801676
:100AE000B6F5801F06D1032606FA05F4A14341F0AE
:100AF000706106E0460D360103FA06F6B14341F097
:100B0000706122B1460D360103FA06F6314300F05A
:100B10000046B6F1004F02D11C4EF16101E01B4EC0
:100B20007160F0BD30B500228B071C0F0F2303FA54
:100B300004F2164B08338C1053F824309343134CB3
:100B400008348D1044F8253023468C1053F8243097
:100B50008C07240F00FA04F423430C4C08348D1046
:100B600044F8253030BD0A49DC3108607047000088
:100B700000080140000C0140001001400014014039
:100B800000180140001C014000200140000001400D
:100B900000002042DF48006840F00100DD490860A5
:100BA00008464068DC490840DA4948600846006861
:100BB000DA490840D74908600846006820F48020D8
:100BC00008600846406820F4FE0048604FF41F00AB
:100BD00088607047CF49096821F48031CD4A11609F
:100BE0001146096821F480211160B0F5803F03D0DF
:100BF000B0F5802F0ED106E0C649096841F4803176
:100C0000C44A116007E0C349096841F4A021C14A00
:100C1000116000E000BF00BF704710B50146002220
:100C2000002300204A11012A02D1BA4C236806E0B1
:100C3000022A02D1B74C236A01E0B64C636A01F084
:100C40001F02012494401C400CB1012000E0002050
:100C500010BD38B5002000900024002500BF3120D1
:100C6000FFF7DBFF05460098401C00900098B0F5A8
:100C7000A06F01D0002DF2D03120FFF7CEFF08B1D8
:100C8000012400E00024204638BD01460020A14A8E
:100C9000106820F0F80040EAC10010607047A049D9
:100CA00008607047024600209A4B586820F47C1078
:100CB00042EA01031843974B586070479849086609
:100CC000704701460020934A506820F00300084313
:100CD000506070478F48406800F00C007047014634
:100CE00000208C4A506820F0F000084350607047A4
:100CF00001460020874A506820F4E06008435060B5
:100D0000704701460020834A506820F4605040EA52
:100D1000C1005060704729B17E4A527A02437D4B30
:100D20005A7204E07B4A527A82437A4B5A72704775
:100D30007B49D8310860704701460020754A5068E9
:100D400020F440400843506070470021714A20322F
:100D50001170704A82F82010012802D004280AD1AC
:100D600004E001216B4A2032117005E00521694A37
:100D70002032117000E000BF00BF70476949086071
:100D800070476449096A0143624A116270476549C4
:100D900044390860704730B5002100220024002348
:100DA0005C4D6D6805F00C0121B1042905D00829BE
:100DB00023D105E05C4D056022E05B4D05601FE03E
:100DC000544D6D6805F47012524D6D6805F4803411
:100DD000022505EB92421CB9544D554305600BE0CA
:100DE0004C4D6D6805F400351DB1504D55430560FF
:100DF00002E04D4D5543056002E04B4D056000BFDC
:100E000000BF444D6D6805F0F0010909484D6B5C69
:100E10000568DD4045603F4D6D6805F4E061090AF5
:100E2000434D6B5C4568DD4085603A4D6D6805F467
:100E30006051C90A3E4D6B5C4568DD40C560354D6B
:100E40006D6805F44041890B3A4D6B5CC568B5FB94
:100E5000F3F5056130BD29B12E4A526902432D4B8D
:100E60005A6104E02B4A526982432A4B5A61704707
:100E700029B1284A92690243264B9A6104E0254A27
:100E800092698243234B9A61704729B1214AD26902
:100E90000243204BDA6104E01E4AD26982431D4BB3
:100EA000DA61704729B11B4AD2680243194BDA60F4
:100EB00004E0184AD2688243164BDA60704729B1C1
:100EC000144A12690243134B1A6104E0114A126971
:100ED0008243104B1A6170471249403908607047CD
:100EE0000F49C86470470B49C87170470948406A88
:100EF00040F0807007494862704701460020054A6B
:100F000092680A400AB1012000E0002070470149C0
:100F100088727047001002400000FFF8FFFFF6FEE5
:100F2000000042428004424200127A0000093D0063
:100F3000840300209403002010B50446FE48844238
:100F400008D10121C014FFF7ADFF0021E014FFF725
:100F5000A9FFC4E0B4F1804F08D101210846FFF792
:100F6000AEFF00210120FFF7AAFFB8E0F34884425A
:100F700008D101210220FFF7A2FF00210220FFF784
:100F80009EFFACE0EE48844208D101210420FFF727
:100F900096FF00210420FFF792FFA0E0E948844279
:100FA00008D101210820FFF78AFF00210820FFF760
:100FB00086FF94E0E448844208D101211020FFF725
:100FC0007EFF00211020FFF77AFF88E0DF4884428F
:100FD00008D101212020FFF772FF00212020FFF718
:100FE0006EFF7CE0DA48844208D101214014FFF70B
:100FF00059FF00216014FFF755FF70E0D548844287
:1010000009D10121C804FFF74DFF00214FF4002052
:10101000FFF748FF63E0D048844209D10121080569
:10102000FFF740FF00214FF48010FFF73BFF56E031
:10103000CA48844209D101214805FFF733FF002146
:101040004FF40010FFF72EFF49E0C548844208D155
:1010500001214020FFF733FF00214020FFF72FFF41
:101060003DE0C048844208D101218020FFF727FFDE
:1010700000218020FFF723FF31E0BB48844208D1E4
:1010800001218015FFF71BFF0021A015FFF717FFB7
:1010900025E0B648844209D101210804FFF702FF88
:1010A00000214FF48030FFF7FDFE18E0B048844285
:1010B00009D101214804FFF7F5FE00214FF400306B
:1010C000FFF7F0FE0BE0AB48844208D10121880411
:1010D000FFF7E8FE00214FF48020FFF7E3FE10BD8C
:1010E00000220288944B98420ED0994B98420BD024
:1010F000B0F1804F08D0914B984205D0904B984268
:1011000002D0904B984204D14FF68F731A404B880F
:101110001A438D4B984207D08C4B984204D04FF61F
:10112000FF431A40CB881A4302808B8883850B8843
:101130000385814B98420BD0854B984208D08B4B4E
:10114000984205D08A4B984202D08A4B984201D1EE
:101150000B7A038601238382704770B50024002236
:101160000023058C4FF6FE7635400584028C83887B
:10117000048B4FF68F752C40B51E2C400D882C43E8
:10118000751E2A400D892A434D882A436A4DA8427C
:101190000BD06F4DA84208D0744DA84205D0744DB5
:1011A000A84202D0734DA84213D14FF6F7752A40DA
:1011B0004D892A434FF6FB752A408D882A434FF606
:1011C000FF652B404FF6FF552B408D892B43CD8972
:1011D0002B4383800483CD888586028470BD70B5DF
:1011E000002400220023058C4FF6EF76354005845D
:1011F000028C8388048B48F6FF752C404FF6FF4520
:101200002C400D884FF6FF7606EA05252C434FF655
:10121000DF752A400D8906EA05152A434D8806EA3E
:1012200005152A43444DA84202D0494DA8421DD17C
:101230004FF67F752A404D894FF6FF7606EA051571
:101240002A434FF6BF752A408D8806EA05152A43C2
:101250004FF6FF352B404FF2FF752B408D8906EA84
:1012600085052B43CD8906EA85052B4383800483BE
:10127000CD880587028470BD70B50024002200234C
:10128000058C4FF6FF6635400584028C8388848B7D
:101290004FF68F752C404FF6FC752C400D882C4373
:1012A0004FF6FF552A400D894FF6FF7606EA0525D1
:1012B0002A434D8806EA05252A431F4DA84202D03D
:1012C000234DA8421DD14FF2FF752A404D894FF69C
:1012D000FF7606EA05252A434FF6FF352A408D881A
:1012E00006EA05252A434EF6FF752B404DF6FF759D
:1012F0002B408D8906EA05152B43CD8906EA051595
:101300002B4383808483CD888587028470BD70B52C
:10131000002200230024058C4EF6FF76354005841C
:10132000038C8488828B48F6FF752A404FF6FF4570
:101330002A400D8820E00000002C014000040040FD
:1013400000080040000C0040001000400014004065
:1013500000340140004C0140005001400054014065
:1013600000180040001C00400020004000400140E8
:1013700000440140004801404FF6FF7606EA05258B
:101380002A434DF6FF752B400D8906EA05352B43A0
:101390004D8806EA05352B43FA4DA84202D0FA4D96
:1013A000A84208D14BF6FF752C408D894FF6FF7689
:1013B00006EA85152C4384808283CD88A0F84050AE
:1013C000038470BD828B4FF2FF331A408283828B7D
:1013D0004FF6FF7303EA01231A4382837047F0B587
:1013E0000C461546002200210026078C4EF6FF7C95
:1013F00007EA0C070784828B018C4FF6FF7707EA18
:10140000043640F6FF473A404FF6FF7707EA0527D4
:101410003A434FF6FF7707EA03373A43D94FB842CA
:101420000ED0D94FB8420BD0B0F1804F08D0D74F73
:10143000B84205D0D64FB84202D0D64FB84206D1F6
:101440004DF6FF77394046F48057394305E047F6BB
:10145000FF57394044F48057394382830184F0BDFB
:10146000828B4FF6F3731A408283828B0A43828306
:101470007047F0B50C461546002200210026078C67
:101480004FF6FF6C07EA0C070784828B018C4FF63E
:10149000FF7707EA04264FF60C773A404FF6FF77BE
:1014A00007EA03172F433A43B64FB8420ED0B64F60
:1014B000B8420BD0B0F1804F08D0B44FB84205D03D
:1014C000B34FB84202D0B34FB84206D14FF6FF57E0
:1014D000394046F48077394305E04FF2FF573940F1
:1014E00044F48077394382830184F0BD028B4FF24C
:1014F000FF331A400283028B4FF6FF7303EA012386
:101500001A4302837047F0B50C46154600220021AD
:101510000026078C4FF6EF7C07EA0C070784028B46
:10152000018C4FF6FF7707EA041640F6FF473A4072
:101530004FF6FF7707EA03373A434FF6FF7707EA9C
:1015400005273A438F4FB8420ED08F4FB8420BD089
:10155000B0F1804F08D08D4FB84205D08C4FB842C3
:1015600002D08C4FB84206D14FF6DF77394046F0B3
:101570001007394305E04FF65F77394044F0100714
:10158000394302830184F0BD028B4FF6F3731A4096
:101590000283028B0A4302837047F0B50C4615465E
:1015A00000220021068C4FF6FE773E400684028B17
:1015B000018C4FF60C7632407E1C06EA03162E4351
:1015C0003243704EB0420ED06F4EB0420BD0B0F1ED
:1015D000804F08D06D4EB04205D06D4EB04202D063
:1015E0006C4EB04206D14FF6FD76314044F0010614
:1015F000314305E04FF6F576314044F001063143C2
:1016000002830184F0BD70B505460C465D488542F5
:101610000ED05D4885420BD0B5F1804F08D05B48B5
:10162000854205D05A48854202D05A48854200D1A9
:1016300000E000BF208850B92389A288618828462D
:10164000FFF7ABFFE1882846FFF79EFF25E02088E3
:1016500004280AD12389A28861882846FFF753FF0E
:10166000E1882846FFF742FF17E0208808280AD1C2
:101670002389A28861882846FFF7FBFEE188284677
:10168000FFF7EEFE09E02389A28861882846FFF76C
:10169000A6FEE1882846FFF795FE70BD2DE9F041D2
:1016A00005460C4600260127608808B9022600E09E
:1016B0000026A088012801D1022700E00127208808
:1016C000A0B92389A28861882846FFF766FFE188D0
:1016D0002846FFF759FF23893A4631462846FFF747
:1016E00012FFE1882846FFF701FF13E02389A28853
:1016F00061882846FFF707FFE1882846FFF7F6FED6
:1017000023893A4631462846FFF747FFE1882846B5
:10171000FFF73AFFBDE8F0810A884B881A438B88AF
:101720001A43CB881A430B891A434B891A438B8976
:101730001A43A0F8442070474FF6FF7181800021C2
:101740000180C18041800172704700210180418089
:101750008180C180018141818181C18170470021E7
:1017600001804180012181800021C1800181704779
:101770000021018041808180C1800181418181817E
:1017800070470000002C014000340140000400407C
:1017900000080040000C004021B1028842F0010224
:1017A000028004E002884FF6FE731A400280704700
:1017B00031B1B0F8442042F40042A0F8442005E0E2
:1017C000B0F84420C2F30E02A0F8442070471AB1CA
:1017D00083890B43838102E083898B438381704734
:1017E0008182704741EA0203A0F8483070471AB17D
:1017F00083890B43838102E083898B438381704714
:1018000001894FF6F8721140018170470A460021A4
:1018100001894FF68F73194011430181704730B52C
:1018200004460D4629462046FFF7F0FF208940F088
:101830000700208130BD2DE9F04104460D461646D3
:101840001F46602D06D13B46012231462046FFF758
:101850005AFE05E03B46012231462046FFF79DFE39
:1018600029462046FFF7D2FF208940F0070020815B
:10187000BDE8F08130B50C4600210189C9B24FF6B0
:10188000FF7505EA0325154325432943018130BD32
:101890002DE9F04105460E4617469846002443467A
:1018A0003A4631462846FFF7E5FF2C894FF6F87097
:1018B000044044F007044FF68F70044044F0700475
:1018C0002C81BDE8F081F0B504460D4616461F4652
:1018D0003B46324629462046FFF7CCFF208940F49C
:1018E00080402081F0BD0185828270470A46002138
:1018F00001884FF68F731940114301807047F0B58E
:101900000C4615461E460021002200230189028B49
:10191000038C4FF6F877394021434FF6FC473A40A5
:1019200040F201173A434FF6DD773B404FF6FF7721
:1019300007EA06172F433B43018102830384F0BD6E
:101940000A460021018B4FF68F7319401143018322
:1019500070470A460021018B48F6FF7319404FF685
:10196000FF7303EA02231943018370470A460021EB
:10197000818B4FF68F7319401143818370470A465C
:101980000021818B48F6FF7319404FF6FF7303EA7D
:10199000022319438183704721B1028842F08002FB
:1019A000028004E002884FF67F731A40028070477D
:1019B00021B1828842F00402828004E082884FF6DE
:1019C000FB731A408280704721B1828842F008027E
:1019D000828004E082884FF6F7731A408280704755
:1019E00021B1828842F00102828004E082884FF6B1
:1019F000FE731A40828070470A460021018B4FF621
:101A0000F77319401143018370470A460021018B87
:101A10004FF2FF7319404FF6FF7303EA0223194395
:101A2000018370470A460021818B4FF6F7731940F6
:101A30001143818370470A460021818B4FF2FF7367
:101A400019404FF6FF7303EA02231943818370475D
:101A50000A460021018B4FF6FB73194011430183A5
:101A600070470A460021018B4FF6FF3319404FF6AD
:101A7000FF7303EA02231943018370470A460021DA
:101A8000818B4FF6FB7319401143818370470A46DF
:101A90000021818B4FF6FF3319404FF6FF7303EAA5
:101AA00002231943818370470A460021018B4FF6B8
:101AB0007F7319401143018370470A460021018B4F
:101AC000C1F30E014FF6FF7303EA022319430183AA
:101AD00070470A460021818B4FF67F7319401143EE
:101AE000818370470A460021818BC1F30E014FF6B6
:101AF000FF7303EA02231943818370470A460021DA
:101B0000018C4FF6FD7319401143018470470A465A
:101B10000021018C4FF6F77319401143018470477F
:101B20000A460021018C4FF6DF7319404FF6FF7310
:101B300003EA02131943018470470A460021018C0D
:101B40004FF67F7319404FF6FF7303EA02131943F0
:101B5000018470470A460021018C4FF6FF5319405B
:101B60004FF6FF7303EA02231943018470470A46C4
:101B70000021018C4FF2FF7319404FF6FF7303EA07
:101B800002231943018470470A460021018C4DF657
:101B9000FF7319404FF6FF7303EA023319430184C0
:101BA000704730B5002301248C40A3B2048C9C43C1
:101BB0000484048C02FA01F5ADB22C43048430BDD8
:101BC00030B5002304248C40A3B2048C9C430484CD
:101BD000048C02FA01F5ADB22C43048430BD70B51B
:101BE0000346002000241846183001258D40ACB271
:101BF0001D8CA5431D8409B1082909D100EB6100A2
:101C0000056825F0700505600568154305600EE060
:101C10000D1FC5F34E052844056825F4E045056011
:101C200005684FF6FF7606EA02263543056070BD6B
:101C300021B1028842F00202028004E002884FF6DD
:101C4000FD731A400280704721B1028842F00402FD
:101C5000028004E002884FF6FB731A40028070474E
:101C600021B1828842F08002828004E082884FF6AF
:101C70007F731A408280704702884FF6F7731A40CC
:101C8000028002880A430280704782884FF68F7371
:101C90001A40828082880A438280704702894FF608
:101CA000F8731A40028102890A430281704702894F
:101CB0004FF67F731A40028102890A4302817047FE
:101CC000818470478185704781867047018770479E
:101CD00081877047A0F84010704702884FF6FF4395
:101CE0001A40028002880A43028070470146888EAB
:101CF00070470146088F70470146888F704701463C
:101D0000B1F8400070470146888C70470146088D45
:101D1000704702460020138A0B400BB1012000E0FF
:101D200000207047CA430282704730B50246002047
:101D300000230024158A05EA0103958905EA0104B8
:101D400013B10CB1012000E0002030BDCA43028273
:101D50007047000031490143314A1160704770B546
:101D6000002100230F22C47804B32D4C246804F40E
:101D7000E064C4F5E064210AC1F10403CA40447878
:101D800004FA03F18478144021430901254C0678B4
:101D9000A155047804F01F050124AC4005786D11AD
:101DA000AD0005F1E025C5F8004109E0047804F034
:101DB0001F050124AC401C4D0678761145F82640DD
:101DC00070BD1A4A0A400243154B1B1F1A60704728
:101DD00039B1134A121D12680243114B1B1D1A60C0
:101DE00006E00F4A121D126882430D4B1B1D1A603C
:101DF0007047042808D14FF0E021096941F004013F
:101E00004FF0E022116107E04FF0E021096921F075
:101E100004014FF0E0221161704700000000FA0554
:101E20000CED00E000E400E080E100E080FFFF1F37
:101E300010B50446FB48844209D101218803FFF70D
:101E400031F800214FF48040FFF72CF832E0F648DB
:101E5000844209D101214804FFF731F800214FF4F1
:101E60000030FFF72CF825E0F048844209D1012129
:101E70008804FFF724F800214FF48020FFF71FF8B3
:101E800018E0EB48844209D10121C804FFF717F894
:101E900000214FF40020FFF712F80BE0E5488442E0
:101EA00008D101210805FFF70AF800214FF480103E
:101EB000FFF705F810BD2DE9F04786B005460E4640
:101EC0000024A24600BFA1460027B08900B100BF90
:101ED0002F462C8A4CF6FF700440F08804432C8275
:101EE000AC894EF6F3100440B088318908437189FB
:101EF00008430443AC81AC8A4FF6FF400440B089EC
:101F00000443AC8201A8FEF746FFC648874202D1CF
:101F1000DDF810A001E0DDF80CA0A88900F4004075
:101F200040B10AEBCA0000EB0A1031684900B0FB6F
:101F3000F1F807E00AEBCA0000EB0A1031688900EB
:101F4000B0FBF1F86420B8FBF0F004012009642133
:101F500001FB1089A88900F4004040B1322000EB59
:101F6000C900B0FBF1F000F00700044308E03220A4
:101F700000EB09106421B0FBF1F000F00F00044306
:101F80002C8106B0BDE8F0874FF4165101600021A6
:101F90008180C18001810C214181002181817047B4
:101FA00010B502460020108A4FF2FF0318400B883C
:101FB0004C8823438C882343CC88234318431082C6
:101FC00010BD0021018041808180C180704721B116
:101FD000828942F40052828104E082894DF6FF73C7
:101FE0001A4082817047F0B5034600240026002580
:101FF000002040F66A17B94200D100BF1846C1F36D
:10200000421401F01F06012707FA06F5012C01D141
:102010000C3004E0022C01D1103000E014301AB171
:1020200007682F43076002E00768AF430760F0BD11
:102030001AB1838A0B43838202E0838A8B438382B3
:102040007047028A4FF6F0731A400282028A0A43EE
:102050000282704782894FF2FF731A40828182891F
:102060000A438281704721B1828942F00202828153
:1020700004E082894FF6FD731A4082817047028A1C
:102080004FF6DF731A400282028A0A4302827047C7
:1020900021B1028A42F48042028204E0028A4BF6B5
:1020A000FF731A4002827047C1F3080282807047B2
:1020B00001468888C0F308007047818941F001011A
:1020C00081817047028BD2B20283028B42EA0122E5
:1020D00002837047028B02F47F420283028B0A4321
:1020E0000283704721B1828A42F02002828204E09A
:1020F000828A4FF6DF731A408282704721B1828A4A
:1021000042F01002828204E0828A4FF6EF731A4096
:102110008282704721B1828A42F00802828204E002
:10212000828A4FF6F7731A408282704721B1828902
:1021300042F40042828103E08289C2F30E0282816E
:10214000704721B1828A42F40062828204E0828A6E
:102150004FF2FF731A4082827047828A4FF6FB73F8
:102160001A408282828A0A438282704721B1828A1F
:1021700042F00202828204E0828A4FF6FD731A4026
:102180008282704702460020B1F5007F00D100BF77
:1021900013880B400BB1012000E00020704701F4D0
:1021A0000072B2F5007F00D100BFCA4302807047C1
:1021B00070B50246002400230025002040F66A1670
:1021C000B14200D100BFC1F3421501F01F03012647
:1021D00006FA03F3012D02D19689334006E0022D61
:1021E00002D1168A334001E0968A33400C12012650
:1021F00006FA04F41688344013B10CB1012000E053
:10220000002070BD10B50022002340F66A14A142E0
:1022100000D100BF0A1201249440A3B2DC43048021
:1022200010BD00000038014000440040004800405C
:10223000004C004000500040002044490860091D47
:102240000860091D0860091D086041483F491431B4
:102250000860704700213D498279002A3AD00A4639
:10226000126803689A430B461A600A1D12680368D5
:102270009A430B1D1A60027911440A6803681A43D5
:102280000A60324A0832126803689A432F4B0833B7
:102290001A601A1D126803689A432C4B0C331A609B
:1022A0004279102A0ED11A1F126803681A43274B6D
:1022B00008331A601A1D126803681A43234B0C3343
:1022C0001A600DE02149427911440A6803681A43F3
:1022D0000A6005E0027911440A6803689A430A60BB
:1022E00070470021016001710C2141710021817151
:1022F00070471649103109680143144A10321160C1
:10230000704701460020114A143212680A400AB18F
:10231000012000E0002070470C491431086070472C
:10232000014600200022094B1B6803EA0102074B0B
:1023300014331B680B4013B10AB1012000E00020E8
:1023400070470249143108607047000000040140E2
:10235000FFFF0F0001460020FE4A106800F0380021
:10236000084310607047FB49096821F00801F94AE9
:10237000116011460968014311607047F549096809
:1023800021F01001F34A1160114609680143116000
:102390007047F148EF494860F04848607047EE48A0
:1023A000EC494860ED4848607047EA48006940F0F1
:1023B0008000E84908617047E648006940F0800005
:1023C000E449086170470420E249C96801F001014D
:1023D00009B101200EE0DF49C96801F0040109B12B
:1023E000022007E0DB49C96801F0100109B10320B0
:1023F00000E00420704700B502460423FFF7E3FF26
:10240000034603E0FFF7DFFF0346521E012B01D115
:10241000002AF7D102B90523184600BD30B504469D
:1024200004254FF43020FFF7E6FF0546042D17D1B1
:10243000C848006940F00200C64908610846446186
:10244000006940F0400008614FF43020FFF7D3FFEF
:102450000546C048006941F6FD710840BD49086164
:10246000284630BD10B504244FF43020FFF7C3FFD9
:102470000446042C16D1B748006940F00400B54961
:1024800008610846006940F0400008614FF43020C0
:10249000FFF7B1FF0446AF48006941F6FB71084001
:1024A000AC490861204610BD00B502460423FFF781
:1024B0008AFF034603E0FFF786FF0346521E012B07
:1024C00001D1002AF7D102B90523184600BD10B585
:1024D00004244FF43020FFF7E7FF0446042C16D104
:1024E0009C48006940F004009A4908610846006968
:1024F00040F0400008614FF43020FFF7D5FF04465C
:102500009448006941F6FB710840924908612046F1
:1025100010BD00208F49C96901F0020109B10120F5
:1025200000E00020704730B5A5250424FFF7F1FF37
:1025300000B100254FF43020FFF75DFF0446042C66
:102540003AD1854883498860844888600846006994
:1025500040F0200008610846006940F04000086132
:102560004FF43020FFF747FF0446042C1BD1794875
:10257000006941F6DF710840764908610846006944
:1025800040F01000086176480580E002FFF733FF55
:102590000446052C10D06F48006941F6EF710840E1
:1025A0006C49086108E0052C06D06A48006941F6CC
:1025B000EF71084067490861204630BD78B506468E
:1025C0000C46042500200090E802FFF714FF0546A2
:1025D000042D24D15F48006940F001005D49086185
:1025E0003480E802FFF707FF0546042D10D1B01C28
:1025F0000090200C00990880E802FFF7FCFE0546D9
:102600005448006941F6FE7108405249086106E0ED
:102610005048006941F6FE7108404E49086128465D
:1026200078BD70B504460D460426F002FFF7E3FEC0
:102630000646042E11D14748006940F00100454983
:1026400008612580F002FFF7D6FE06464148006982
:1026500041F6FE7108403F490861304670BD70B5D3
:1026600005460E460424E002FFF7C5FE0446042C8E
:1026700017D139483749886038488860084600696A
:1026800040F0100008612E80E002FFF7B4FE04461F
:10269000052C06D02F48006941F6EF7108402D49FE
:1026A0000861204670BD2DE9F04304464FF6FF76E1
:1026B0003746B046B1460425E443E6B2C4F30727E3
:1026C000C4F307484FEA1469E802FFF794FE054691
:1026D000042D49D120481F49886020488860084659
:1026E000006940F010000861FF2E06D01C48083039
:1026F0000680E802FFF77FFE0546042D08D1FF2F74
:1027000006D017480A300780E802FFF774FE054636
:10271000042D0AD1B8F1FF0F07D011480C30A0F8F2
:102720000080E802FFF767FE0546042D0AD1B9F1E3
:10273000FF0F07D00A480E30A0F80090E802FFF71C
:102740005AFE0546052D0FD00248006941F6EF718B
:10275000084007E00020024023016745AB89EFCD28
:1027600000F8FF1F664908612846BDE8F08330B5D0
:10277000054604244FF43020FFF73DFE0446042CA8
:1027800041D160485E4988605F48886008460069BA
:1027900040F0200008610846006940F040000861F0
:1027A0004FF43020FFF727FE0446042C22D1544872
:1027B000006941F6DF710840514908610846006927
:1027C00040F0100008611DB100205049088002E06F
:1027D000A5204E4908804FF43020FFF70CFE044638
:1027E000052C10D04648006941F6EF710840444975
:1027F000086108E0052C06D04148006941F6DF7108
:1028000008403F490861204630BDF0B505460E46F8
:10281000174604243B483A4988603B488860E002F8
:10282000FFF7E9FD0446042C19D13548006940F052
:1028300010003349086147F0F8003043284333491A
:10284000891C0880E002FFF7D6FD0446052C06D05F
:102850002B48006941F6EF7108402949086120467C
:10286000F0BD2748C069800870472548006A704756
:1028700000202349096801F0200109B1012000E08E
:102880000020704729B11E4A126902431C4B1A618D
:1028900004E01B4A12698243194B1A6170470146D2
:1028A0000020012908D1164AD26902F001020AB1BA
:1028B000012008E0002006E0114AD2680A400AB16F
:1028C000012000E0002070470D49C86070470420D7
:1028D0000B49C96801F0010109B101200EE0084966
:1028E000C96801F0040109B1022007E00449C96880
:1028F00001F0100109B1032000E00420704700003E
:102900000020024023016745AB89EFCD00F8FF1F8F
:1029100010B50446BE48844208D101218014FEF758
:10292000C1FA0021A014FEF7BDFA16E0B9488442AE
:1029300008D101210014FEF7C2FA00212014FEF78D
:10294000BEFA0AE0B448844207D10121C013FEF761
:10295000B6FA0021E013FEF7B2FA10BD10B500225E
:10296000028802F441520B884C8823438C8823430D
:10297000CC8823430C8923434C8923438C892343EC
:10298000CC8923431A430280838B4FF2FF74234088
:1029900083830B8A038210BD2DE9F04F85B0054675
:1029A0000C464FF0000902274FF000084FF0010BD2
:1029B0000026B246A88B4FF240010840A8830220AF
:1029C0002884B5F81C90A068022801D100BF38E027
:1029D000A08810B94FF0010B01E04FF0020B8D48B9
:1029E000854200D100E000BF6846FEF7D4F9DDF86B
:1029F00000A0E088B0F5007F0AD14FEA1A2000EB72
:102A000080004000A168B0FBF1F0401D86B20BE0F1
:102A10004FEA4B10BAFBF0F000EB80004000A168D9
:102A2000B0FBF1F0401D86B20A20B6FBF0F606F0CE
:102A30000108A6EB0800C0F34F074FF6FF7000EA4D
:102A40000828022F01DBFF2F02DD02274FF00008CC
:102A5000E08840EA080038432884A088A189084318
:102A6000618808432188084340F4006040EA09096E
:102A7000A5F81C9005B0BDE8F08F002101804180D1
:102A80008180C180018141818181C18107210182D1
:102A900070470021018041808180C18002218160D6
:102AA00000218181704721B1028842F040020280FA
:102AB00004E002884FF6BF731A400280704721B1CC
:102AC000828B42F48062828304E0828B4FF6FF3374
:102AD0001A408283704730B5002400230C11012571
:102AE000A540ABB21AB185881D43858002E0858878
:102AF0009D43858030BD1AB183880B43838002E0FB
:102B000083888B4383807047818170470146888921
:102B100070474FF6FF62914204D0028842F48072FF
:102B2000028004E002884FF6FF631A40028070477B
:102B300021B1828842F00402828004E082884FF64C
:102B4000FB731A408280704702884FF2FF731A406D
:102B5000028002880A4302807047018841F4805154
:102B60000180704721B1028842F40052028004E0E3
:102B700002884DF6FF731A4002807047024600201B
:102B8000012901D0108B00E0908A70470146088A25
:102B90007047B1F5804F04D1028842F48042028030
:102BA00004E002884BF6FF731A4002807047024629
:102BB000002013890B400BB1012000E0002070477A
:102BC000CA4302817047F0B502460020002400236A
:102BD000002501F00F070126BE40B4B20B110126FB
:102BE0009E40B3B2968806EA03051689264016B1C0
:102BF0000DB1012000E00020F0BD10B5002201F071
:102C00000F040123A3409AB2D343038110BD0000F7
:102C10000030014000380040003C00400CB500206E
:102C2000019000906B48006840F48030694908606A
:102C300000BF6848006800F4003000900198401C14
:102C40000190009818B90198B0F5A06FF1D16148D2
:102C5000006800F4003010B10120009001E0002075
:102C600000900098012843D15B48006840F01000B4
:102C7000594908600846006820F0030008600846CB
:102C8000006840F0020008605248406851494860BE
:102C90000846406848600846406840F480604860E4
:102CA0000846406820F47C1048600846406840F4BC
:102CB000E81048600846006840F08070086000BF77
:102CC0004448006800F000700028F9D0414840688E
:102CD00020F003003F4948600846406840F0020089
:102CE000486000BF3B48406800F00C000828F9D15C
:102CF0000CBD10B5FFF792FF10BD10B53548006848
:102D000040F00100334908600846406833490840F4
:102D10003049486008460068314908402D4908603C
:102D20000846006820F4802008600846406820F4C7
:102D3000FE0048604FF41F008860FFF7DAFF294863
:102D40002949086010BD10B5002100200022214B48
:102D50005B6803F00C0121B1042906D0082928D1B1
:102D600007E0224B224C236027E0204B204C2360BD
:102D700023E0184B5B6803F47010164B5B6803F498
:102D80008032022303EB904022B91A4B4343184C84
:102D900023600DE00F4B5B6803F4003323B1154B48
:102DA0004343134C236003E0104B4343104C236018
:102DB00003E00E4B0E4C236000BF00BF054B5B6869
:102DC000C3F303130C4CE15C094B1B68CB40084C6C
:102DD000236010BD00100240002002400000FFF8F8
:102DE000FFFFF6FE0000010808ED00E000127A0087
:102DF0009803002000093D009C030020EFF31080A1
:102E000072B6704780F31088704724484FF0FF0176
:102E10000170002080F309881D48012101702048BD
:102E20004FF08051016062B6FEE71D484FF08051BF
:102E3000016070471A484FF0805101607047EFF30E
:102E4000098028B1203880E8F00F1249096808602D
:102E500000B50A4880475DF804EB0B480B490A7837
:102E600002700C480C490A680260106890E8F00F84
:102E7000203080F309884EF0040E70476B2F010854
:102E800045330108C5030020C7030020C803002004
:102E9000CE030020D4030020DC03002022ED00E05C
:102EA00004ED00E07047704710B504462046FDF77A
:102EB0004AFC10BD10B504462046FDF745FC10BD88
:102EC00010B5FDF742FC10BD10B5FDF73FFC10BD7D
:102ED00070B5044610464FF080750560051F284602
:102EE0002C606FF00106051F28462E604FF0123649
:102EF000051F28462E604FF00336051F28462E601A
:102F00004FF00236051F28462E607610051F284612
:102F10002E60051F284629604FF01136051F2846F0
:102F20002E604FF01036051F28462E604FF00936F0
:102F3000051F28462E604FF00836051F28462E60D4
:102F40004FF00736051F28462E604FF00636051F46
:102F500028462E604FF00536051F28462E604FF09C
:102F60000436051F28462E6070BD10B5FDF7EFFB37
:102F700010BD10B504462046FDF7EAFB10BD7047B2
:102F800072B6704762B67047EFF3108072B6704742
:102F900080F31088704700000246002005E011F819
:102FA000013B02F8013B431CD8B20B78002BF6D151
:102FB000137070472DE9F04105460E461446002770
:102FC000FC480078002804DD112020700020BDE8B6
:102FD000F0812878012808D0022807D0032802D0E1
:102FE000042804D100E000BF00BF00BF03E00120BF
:102FF00020700020EBE700BFFFF700FF074605F158
:103000000F013046FFF7C8FF80463846FFF7FAFE4B
:10301000002020704046DAE70146002002E0491C0B
:10302000421CD0B20A78002AF9D170472DE9F0414C
:1030300005460F4614464FF00008DE480078002889
:1030400003DD12202070BDE8F0812878012808D027
:10305000022807D0032802D0042804D100E000BFD2
:1030600000BF00BF02E001202070ECE700BFFFF7C7
:10307000C5FE80463846FFF7CFFF06460F2E05DD1A
:103080004046FFF7BFFE0B202070DCE7394605F114
:103090000F00FFF781FF4046FFF7B4FE00202070CD
:1030A00000BFD0E77CB5002514E06946284602F051
:1030B00067F8064666B9C04850F8254044B1012C6F
:1030C00006D0D4E9020100EB81002064019860641D
:1030D000681CC5B21F2DE8DD7CBD002700BF02E0E3
:1030E000C82002F011F9B54800780028F8D0B4489B
:1030F00000686421B0FBF1F400BFFFF77FFE0746D4
:10310000B0480068B0490860AE4806680020AD4984
:1031100008603846FFF776FE6CB1B6FBF4F0C0F1FC
:10312000640045B2002D02DBA84805700BE00020CA
:10313000A649087007E00020A4490870A04800686C
:103140006421B0FBF1F4FFF7BFFEFFF7ABFF642093
:1031500002F0DAF8D1E700B587B003200021802221
:103160009B4BCDE90132CDE903104FF6FE701E23D3
:10317000984A0090AFF29D0001F0F5FD06AA96A1D5
:103180001E2001F06EFF07B000BD002400BFFFF756
:1031900035FE04468B480068401C8A49086020467A
:1031A000FFF730FEFFF78CFEF1E700B587B0032094
:1031B000002180228C4BCDE90132CDE903104FF67E
:1031C000FF701F23894A0090AFF2410001F0CBFD50
:1031D00006AA87A11F2001F044FF07B000BD04E04C
:1031E000002200F8012B4A1E91B20029F8DC70473A
:1031F00030B54FF4A0718248FFF7F1FF804B03F127
:10320000200500240AE0002018705D603F20D8737C
:103210000021197420332035601C84B2092CF2DBA4
:103220000020187058603F20D8730021197474482A
:103230007449086030BD30B54FF484617248FFF7BF
:10324000CEFF80215C48FFF7CAFF6F4B03F15805A2
:1032500000240AE05D613F2083F8480000214920F6
:10326000C15458335835601CC4B20B2CF2D3002023
:1032700058613F2083F8480000214920C1540020B4
:103280006249086060486249086030BD0022614BB5
:103290001A706149002004E0002201F8012B421C51
:1032A000D0B20428F8DB00225C4B1A705C4B1A7019
:1032B0005C4B1A605C4B1A60704700205B490860E9
:1032C0003C4908705A4908705A4908705A490870B0
:1032D0005A4908603B4908603B4908603849086022
:1032E00036490870704710B5FFF7DCFDFFF7E5FFC2
:1032F000FFF7CCFFFFF79FFFFFF77AFF00F038FFE3
:10330000FFF753FFFFF727FFFFF7CDFD10BD4A483A
:103310000078012808D127480078FF2804D22548E2
:103320000078401C2349087070474549394A127893
:10333000885C3949095C424A515C01EBC001384A5A
:103340001170704710B500243B480078012830D137
:10335000FFF754FD044617480078002804DD15489F
:103360000078401E1349087012480078F0B93048C0
:103370000078D8B9FFF7D9FF29480078274909789C
:10338000884213D00C482649097850F82100254975
:10339000086008460068406B401C0968486327487D
:1033A0000068401C25490860FFF744FD2046FFF7F0
:1033B00029FD10BDC50300201C790020C403002096
:1033C000BC030020D0030020C0030020B80300206D
:1033D0001C7500201877002075432F4F532D494945
:1033E00020537461740000001C77002018790020BD
:1033F00075432F4F532D49492049646C65000000E7
:1034000050730020B00300209C790020E0030020CE
:10341000D8030020C9030020CA030020C7030020EE
:10342000C8030020DC030020D4030020E8030020B0
:10343000C6030020CF030020CE030020AC030020F1
:103440009A5E020810B50024FE480078012811D1C8
:10345000FFF7D4FC0446FC48007840B9FB480078EC
:10346000FF2804D2F9480078401CF849087020462B
:10347000FFF7C8FC10BD10B50024FFF7BFFC0446E1
:10348000F1480078F0B9F1480078D8B9FFF74DFF5E
:10349000EF480078EF490978884213D0EE48EC49AC
:1034A000097850F82100ED49086008460068406B33
:1034B000401C09684863EA480068401CE849086005
:1034C000FFF7B3FC2046FFF79DFC10BD10B50024AC
:1034D000DC480078012822D1FFF790FC0446DB4845
:1034E0000078002818DDD9480078401ED7490870B8
:1034F0000846007860B9D448007828B92046FFF71C
:1035000081FCFFF7B8FF0AE02046FFF77BFC06E0EE
:103510002046FFF777FC02E02046FFF773FC10BD62
:1035200010B5C848007890B9FFF7FFFEC84800788A
:10353000C8490870C848C649097850F82100C749E9
:10354000086008460068C7490860FFF75EFC10BDC8
:1035500010B50024022001F0D7FEFFF74FFC04460F
:103560000020C14908602046FFF74CFC642001F0B0
:10357000CBFEFFF743FC0446BB480068BB4908602C
:103580000120BB4908702046FFF73CFC10BD70B518
:103590000026FFF7F4FCFFF731FC0646B54800684B
:1035A000401CB44908603046FFF72CFCA548007861
:1035B000012853D1B048007820B1012804D0022856
:1035C00009D103E001250BE0002509E001250120D8
:1035D000A949087004E001250020A749087000BF30
:1035E00000BF05B970BDA548046833E0FFF706FCCD
:1035F0000646608D50B3608D401E80B2608528BB4A
:1036000094F82C0000F0370040B114F82C0F20F093
:1036100037002070012060702C3C02E0002084F80C
:103620002D0094F82C0000F0080078B93034A07810
:103630009349097808439249087020789149085CB9
:103640006178084314F830198E4A50546469304642
:10365000FFF7D8FB94F82E001F28C7D100BFC1E7A1
:1036600040F21D10704770472DE9F04704460D46A3
:10367000164694F80A90DFF810A21AF809204FF0C5
:10368000010909FA02F909F0FF0804F10B0919F818
:1036900002901AF809704FF0010909FA07F909F0C8
:1036A000FF0C07EBC20909F0FF0004F10B0919F840
:1036B000029029EA0C0904F10B0A0AF80290D1469B
:1036C00019F80290B9F1000F05D194F80A9029EA8F
:1036D000080984F80A90DFF8809159F820104FF01B
:1036E0000009A1F82A90C1F81C900D6281F82D30D4
:1036F00091F82C9029EA060981F82C9091F82C90E9
:10370000B9F1000F13D1DFF8789199F8009049EAE8
:103710000809DFF86CA18AF80090DFF8689119F8C1
:10372000029049EA0C09DFF85CA10AF80290BDE8B2
:10373000F08710B54B4A1268D0614A4A126892F875
:103740003010504A525C474B1B6893F831309A4313
:103750004C4B5A541A46525C42B9424A126892F88B
:103760003230474A12789A43454B1A703D4A1268E4
:1037700092F8303000F10B02D25C3A4B1B6893F8A0
:1037800031301A43374B1B6893F8304000F10B037C
:103790001A55827A334B1B6893F832301A4382727F
:1037A00010BD304A126892F8301000F10B02525CE2
:1037B0002C4B1B6893F831309A4300F10B035A5499
:1037C0001A46525C32B9827A264B1B6893F8323023
:1037D0009A4382720022234B1B6883F82D20214BD1
:1037E0001B6883F82C201F4B1B68DA61704700238D
:1037F000837200F10B01002204E0002301F8013B79
:10380000531CDAB2042AF8DB704705E011F8013BDB
:1038100000F8013B531E9AB2002AF7DC70472DE9ED
:10382000F84F05460E4617469846DDE90BABDDF826
:10383000289000200090FFF7E1FA009013480468F8
:10384000002C25E0CE030020C5030020C603002085
:10385000C8030020C70300201C790020DC030020DF
:10386000AC030020D4030020D0030020BC030020C0
:10387000C4030020E8030020E4030020E00300204C
:10388000C9030020CA0300209A5E0208D803002062
:1038900069D054F8140F364908600098FFF7B2FA5F
:1038A00044F8146CA576002020766076E08244F817
:1038B00010AC44F8089C44F80C7C24F804BC24F8B0
:1038C000028CE077E8102077217F01208840A077E4
:1038D00005F00700E076E17E012088406077002057
:1038E000A0602061E0602062A0626062E06220630C
:1038F0003F2084F83400143C002149200155204623
:10390000FFF737FB2046FFF7CFFAFFF777FA009073
:10391000184840F825401848006860610020A06100
:103920001548006810B114480068846112480460AA
:103930003034A0781149097808431049087020787C
:103940000F49085C6178084314F830190C4A505448
:103950000C480078401C0B4908700098FFF752FA99
:103960000020BDE8F88F0098FFF74CFA4220F8E7F6
:10397000D80300201C790020E0030020C9030020A8
:10398000CA030020CF0300202DE9F05F04460F4654
:1039900091461E464FF0000B2078052804D00120E8
:1039A00030700020BDE8F09F09F0800ABAF1000FE6
:1039B00004D029F080094FF0010801E04FF0000821
:1039C00000203070FFF71AFA8346B9F1000F2CD0AF
:1039D000B9F1010F3BD0B9F1020F03D0B9F1030FD8
:1039E00046D111E0208900EA0705BD4206D1B8F1B1
:1039F000010F05D12089A843208101E0702030709B
:103A00005846FFF7FFF93AE0208900EA070535B18B
:103A1000B8F1010F05D12089A843208101E0702071
:103A200030705846FFF7EEF929E0208927EA0005B3
:103A3000BD4206D1B8F1010F05D12089284320816C
:103A400001E0702030705846FFF7DCF917E020895C
:103A500027EA000535B1B8F1010F05D120892843C7
:103A6000208101E0702030705846FFF7CBF906E066
:103A70005846FFF7C7F900256F20307000BF00BF20
:103A800028468FE72DE9F04106460D460027F84805
:103A90000078002804DD102028700020BDE8F081A7
:103AA000FFF7ACF90746F348046894B10068406832
:103AB000F0490860052020702681002060603F20CA
:103AC000A0720021E1723846FFF79CF900202870AF
:103AD00004E03846FFF796F9722028702046DDE7AB
:103AE00030B501464A6808682AB9CC68606028B1D8
:103AF0000025456002E0106000B142608B6800253F
:103B00005D6230BDF0B506460F46B468002028342B
:103B100060802780207920F02000207100206071D3
:103B20002079283C88B93034A078D34909780843F3
:103B3000D14908702078D149085C6178084314F8AD
:103B40003019CE4A5054012500E000253046FFF7D9
:103B5000C7FF2846F0BD2DE9F047044689461546C3
:103B60004FF0000AC2480078002804DD0F202870BA
:103B70002046BDE8F0872078052803D00120287072
:103B80002046F6E7FFF73AF98246606808B1012758
:103B900000E00027B9F1000F03D0B9F1010F40D1C7
:103BA0001BE09FB93F20A0720021E172002020702D
:103BB000B0480068606000202081AE480460504634
:103BC000FFF720F900202870002605E05046FFF797
:103BD00019F94920287026462AE0D4F8048005E027
:103BE00000214046FFF78EFFD8F80080B8F1000FA3
:103BF000F6D13F20A0720021E172002020709D4884
:103C000000686060002020819A4804605046FFF7F9
:103C1000F9F8012F01D1FFF72EFC002028700026B3
:103C200006E05046FFF7EEF807202870264600BF52
:103C300000BF30469DE72DE9F04105460E4614468B
:103C400000278B480078002804DD11202070002018
:103C5000BDE8F081FFF7D2F807462878052806D09E
:103C60003846FFF7CFF8012020700020F0E705F17B
:103C70000A013046FFF790F980463846FFF7C2F850
:103C8000002020704046E3E72DE9F04105460F464D
:103C900014464FF0000876480078002803DD122013
:103CA0002070BDE8F081FFF7A9F880462878052844
:103CB00005D04046FFF7A6F801202070F1E738460E
:103CC000FFF7AAF906460F2E05DD4046FFF79AF8E2
:103CD00073202070E5E7394605F10A00FFF75CF92B
:103CE0004046FFF78FF80020207000BFD9E7F0B5FD
:103CF0001446059E624F3F6897F82C7047F02007E6
:103D0000DFF87CC1DCF800C08CF82C700027DFF8ED
:103D100070C1DCF800C08CF82D70594F3F687E856B
:103D2000574F3F6879620C828B74554F3F688F60A4
:103D300047680F6000274F60C860456805B169603B
:103D400041604F4F3F6897F830204C4FBF5CDFF821
:103D500030C1DCF800C09CF831C027EA0C07DFF85E
:103D60001CC10CF802706746BF5C5FB9444F3F68E6
:103D700097F832C0404F3F7827EA0C07DFF8F8C0C9
:103D80008CF80070F0BD2DE9F04F89B005460F4664
:103D900091469A46129E00200290354800780028ED
:103DA00005DD02203070002009B0BDE8F08F3548F5
:103DB0000078002803DD0D2030700020F4E728781B
:103DC000052803D0012030700020EDE709F0800BBA
:103DD000BBF1000F04D029F080094FF0010801E089
:103DE0004FF00008FFF70AF80290B9F1000F57D022
:103DF000B9F1010F77D0B9F1020F03D0B9F1030F78
:103E000070D120E0288900EA0704BC420FD1B8F144
:103E1000010F02D12889A043288119480068048530
:103E20000298FEF7EFFF002030702046BCE74B46BB
:103E30003A4604A92846CDF800A0FFF758FF02989B
:103E4000FEF7E0FF77E0288900EA0704E4B1B8F163
:103E5000010F02D12889A043288109480068048500
:103E60000298FEF7CFFF0020307020469CE700004C
:103E7000C5030020B4030020C9030020CA030020AA
:103E8000D4030020C60300204B463A4604A9284626
:103E9000CDF800A0FFF72BFF0298FEF7B3FF4AE032
:103EA000288927EA0004BC420FD1B8F1010F02D1E2
:103EB000288920432881BF48006804850298FEF7BE
:103EC000A1FF0020307020466EE74B463A4604A919
:103ED0002846CDF800A0FFF70AFF0298FEF792FFF0
:103EE00029E000E01FE0288927EA00047CB1B8F14E
:103EF000010F02D1288920432881AE48006804853B
:103F00000298FEF77FFF0020307020464CE74B46BA
:103F10003A4604A92846CDF800A0FFF7E8FE02982B
:103F2000FEF770FF07E00298FEF76CFF00246F2099
:103F30003070204638E700BFFFF79DFAFEF75EFFBE
:103F400002909C48006890F82D0020B399480068C2
:103F500090F82D00039000209649096881F82D0003
:103F600004A8FFF7BDFD00209249096881F82C00E4
:103F70000298FEF747FF00240398012802D0022888
:103F800003D000BF0A20307002E00E20307000BF66
:103F900000BF204608E787480068048DB8F1010F8C
:103FA0001ED1B9F1000F0ED0B9F1010F0CD0B9F14B
:103FB000020F03D0B9F1030F0AD100E000BF288936
:103FC000A04328810BE000BF28892043288106E018
:103FD0000298FEF717FF6F2030700020E4E600BF64
:103FE0000298FEF70FFF002030702046DCE670B527
:103FF0000025FEF703FF05466E480068048D28463D
:10400000FEF700FF204670BD2DE9FC5F044689469F
:1040100092461E46002000902078052804D00120FA
:1040200030700020BDE8FC9FFEF7E8FE0090BAF17A
:10403000000F03D0BAF1010F0AD104E0208920EA71
:10404000090020810BE0208940EA0900208106E078
:104050000098FEF7D7FE712030700020E2E700BF25
:104060004FF0000B656855E0A87C40B3012838D0BC
:10407000022802D0032844D111E02089298A00EACD
:104080000107288AB84209D139462846FFF73AFD88
:104090008046B8F1010F01D14FF0010B38E02089C3
:1040A000298A00EA01074FB139462846FFF72AFD61
:1040B0008046B8F1010F01D14FF0010B28E0288AAA
:1040C000218920EA0107288AB84209D139462846C1
:1040D000FFF718FD8046B8F1010F01D14FF0010B39
:1040E00016E0288A218920EA01074FB1394628467F
:1040F000FFF708FD8046B8F1010F01D14FF0010B29
:1041000006E00098FEF77EFE6F203070002089E701
:1041100000BF2D68002DA7D10098FEF773FEBBF1FC
:10412000010F01D1FFF7A7F9FEF768FE0090208983
:1041300001900098FEF766FE00203070019871E74C
:104140002DE9F04104460D4600272078052804D0CB
:10415000012028700020BDE8F081FEF74FFE0746E1
:1041600026893846FEF74EFE002028703046F2E7DA
:1041700070B58C211048FFF732F80F4C04F11C0683
:1041800000250AE00020207066603F20A072002118
:10419000E1721C341C36681C85B2042DF2DB002051
:1041A000207060603F20A0720021E1720248034944
:1041B000086070BDD403002090740020B403002078
:1041C0002DE9F04104460D4600272078042804D04C
:1041D000012028700020BDE8F081FA48007800280E
:1041E00003DD022028700020F5E7FEF707FE0746F2
:1041F00020890612207AFF2820D1208900F47F40F0
:1042000020812089F049096891F82E100843208107
:10421000ED4800686060EC48006890F82E00B042FD
:1042200005DC3846FEF7EEFD7820287004E03846BD
:10423000FEF7E8FD002028700120CCE73846FEF7A5
:10424000E1FD0020287000BFC5E72DE9F0410546DB
:104250000E460027DB480078002804DD102030706F
:104260000020BDE8F081FEF7C9FD0746D74850F8A9
:10427000250030B13846FEF7C5FD282030700020FB
:10428000EFE70120D14941F82500D14804684CB935
:10429000002041F825003846FEF7B4FD04203070B8
:1042A0002046DEE7CA4800684068C94908603846C9
:1042B000FEF7A8FD04202070FF2040EA05202081A1
:1042C000002060603F20E073002121742046FFF74A
:1042D0008EFA002030702046C3E730B590F83020C9
:1042E000BC4B9B5C90F83140A343BA4CA35423468B
:1042F0009B5C33B990F83240B74B1B78A343B64C64
:10430000237000F82E1FC1F3C203837001F007036E
:10431000437084780123A340037144780123A340B0
:10432000C3700379AC4C24782343AB4C237083785F
:10433000A84CE35CC478234384782E38A54D2B55D4
:10434000A24B43F8210030BD2DE9F84F04468A46C0
:104350001546002000902078042804D00120287001
:104360002046BDE8F88F97480078002803DD0F202D
:1043700028702046F5E7FEF741FD0090A07A10B1C5
:104380004FF0010801E04FF00008BAF1000F03D030
:10439000BAF1010F5CD122E0B8F1000F18D13F2033
:1043A000E07300212174208907120020874941F819
:1043B00027002070864800686060002020818448C3
:1043C00004600098FEF71EFD00202870002605E01E
:1043D0000098FEF717FD4920287026463FE0208907
:1043E000071294F808B0D4F80490B9F1000F07D080
:1043F00099F82E00B84203D159464846FFF76DFFA1
:1044000005E00023102219462046FFF72DF9A07A77
:104410000028F6D13F20E073002121742089071283
:1044200000206A4941F827002070694800686060F0
:1044300000202081664804600098FEF7E3FCB8F194
:10444000010F01D1FFF717F800202870002606E0C1
:104450000098FEF7D7FC07202870264600BF00BF53
:1044600030467EE72DE9F74F82B00546174600201B
:1044700000902878042804D00120387005B0BDE8E9
:10448000F08F50480078002802DD02203870F5E7F0
:1044900052480078002802DD0D203870EEE7FEF764
:1044A000ADFC009028894FEA2028287AFF281FD1E8
:1044B000288900F47F40288128894349096891F8B8
:1044C0002E10084328814048006868603E48006814
:1044D00090F82E00404505DC0098FEF793FC78200C
:1044E000387004E00098FEF78DFC00203870C5E7B6
:1044F000287A01906C6894F82E00404570DD3248AF
:10450000006890F82E10019881427FDA94F830907C
:10451000304810F8090094F831100840B0B12D4827
:1045200010F8090094F8311088432A4901F809006D
:10453000084610F8090030B994F83210264800787F
:104540008843254908704FF0010A15E0E6698EB1ED
:1045500014F8301F06F10B00405C6178884314F8B2
:10456000302906F10B01885420B9B07A94F8321042
:104570008843B0724FF0000A04F82E8F2078C010E4
:10458000A070207800F007006070A17801208840BA
:104590002071617801208840E0702E3CBAF1010F53
:1045A0001FD13034A0780C49097808430A490870B3
:1045B00020780849085C6178084314F83019054AE6
:1045C000505420E0C5030020D40300201C790020B3
:1045D000B0030020CA030020C9030020C603002046
:1045E00014E0E6697EB1B07A3034A1780843B07245
:1045F000217806F10B00405C6178084314F83029FB
:1046000006F10B0188546F4840F828406E48006856
:1046100090F82C0040F010006B49096881F82C00DC
:1046200000206949096881F82D00674903980968E5
:1046300048852846FFF77DF80098FEF7E3FBFEF774
:104640001AFFFEF7DBFB00905F48006890F82D0032
:10465000C0B15D48006890F82DB02846FFF7A1F87A
:104660000098FEF7CFFBBBF1010F03D0BBF1020FA7
:1046700003D000BF0A20387002E00E20387000BF5F
:1046800000BFFBE6002050490968C8610098FEF7AA
:10469000B9FB0020387000BFF0E62DE9F041044678
:1046A00000274A480078002802DD0520BDE8F08197
:1046B0002078042801D00120F8E7FEF79FFB074689
:1046C00020890612257A404960680968884204D02A
:1046D0003846FEF797FB6420E8E73B48006890F80F
:1046E0002E00B04204D1294637480068FFF7F5FD97
:1046F0000120344941F82600A07A08B30023102293
:1047000019462046FEF7B0FF0546208900F47F4099
:1047100020812089284320812A4850F825006060A4
:10472000B54206DC3846FEF76DFBFEF7A4FE7820A6
:10473000BCE73846FEF766FBFEF79DFE0020B5E7B6
:10474000208940F0FF002081002060603846FEF79D
:1047500059FB0020AAE72DE9F04705460C464FF02B
:1047600000091A480078002802DD0620BDE8F0871D
:104770002878042801D00120F8E7FEF73FFB8146A6
:1047800028890012E071287AA071A079FF2802D14F
:104790000120607101E000206071A87A207105F1AC
:1047A0000B082646002705E018F8010B06F8010B58
:1047B000781CC7B2042FF7DB4846FEF723FB002026
:1047C000D4E700001C790020D4030020C50300209A
:1047D00070B5044600262078032801D0002070BD63
:1047E000FEF70CFB06462589002D02DD2089401EC0
:1047F00020813046FEF706FB2846F0E770B50546F7
:104800000026DC480078002801DD002070BDFEF79E
:10481000F5FA0646D8480468006820B1D648006812
:104820004068D54908603046FEF7ECFA5CB10320D9
:1048300020702581002060603F20E07300212174FA
:104840002046FEF7D4FF2046E0E72DE9F047044676
:10485000884615464FF000092078032804D001202F
:1048600028702046BDE8F087C2480078002803DDA4
:104870000F2028702046F5E7FEF7C0FA8146A07A9F
:1048800008B1012700E00027B8F1000F03D0B8F10C
:10489000010F3ED11BE09FB93F20E073002121743E
:1048A00000202070B4480068606000202081B24879
:1048B00004604846FEF7A6FA00202870002605E0AE
:1048C0004846FEF79FFA49202870264628E005E072
:1048D0000023012219462046FEF7C6FEA07A0028D2
:1048E000F6D13F20E0730021217400202070A248FF
:1048F00000686060002020819F4804604846FEF701
:1049000081FA012F01D1FEF7B6FD002028700026A4
:1049100006E04846FEF776FA07202870264600BFD4
:1049200000BF30469EE72DE9F04105460E4614468D
:104930004FF000082878032803D001202070BDE83C
:10494000F0818C480078002802DD02202070F6E714
:104950008A480078002802DD0D202070EFE7FEF77E
:104960004DFA80462889002808DD2889401E2881C4
:104970004046FEF747FA00202070E0E780480068D4
:1049800090F82C0040F001007D49096881F82C0066
:1049900000207B49096881F82D0079480068468528
:1049A0002846FEF7C6FE4046FEF72CFAFEF763FDEA
:1049B000FEF724FA80467248006890F82D00B0B1E6
:1049C0006F48006890F82D702846FEF7EAFE4046D2
:1049D000FEF718FA012F02D0022F03D000BF0A20E1
:1049E000207002E00E20207000BF00BFA7E700206B
:1049F00063490968C8614046FEF704FA0020207048
:104A000000BF9CE72DE9F04104460F4615464FF0E4
:104A100000082078032804D0012028700020BDE879
:104A2000F081FEF7EBF98046A07A20B300267FB133
:104A3000012F0CD107E00223012200212046FEF7BE
:104A400013FE701CC6B2A07A0028F4D109E000BFA2
:104A50000223012200212046FEF706FE701CC6B28A
:104A600000BF00BF4046FEF7CDF9FEF704FD0E2063
:104A700028703046D3E74046FEF7C4F9002028707E
:104A800000BFCCE770B5044600252078032801D08C
:104A9000012070BDFEF7B2F90546A07A60B100238F
:104AA000012219462046FEF7DFFD2846FEF7AAF947
:104AB000FEF7E1FC0020ECE720894FF6FF71884209
:104AC00007D22089401C20812846FEF79BF9002050
:104AD000DFE72846FEF796F93220DAE72DE9F047BE
:104AE00004460D464FF000092078032802D001202B
:104AF000BDE8F087FEF782F98146A07AA87104F13B
:104B00000B07AE1C4FF0000807E017F8010B06F882
:104B1000010B08F1010000F0FF08B8F1040FF4DB0D
:104B2000208928804846FEF76DF90020E0E72DE94E
:104B3000F04104460E46154600272078032803D08E
:104B400001202870BDE8F081FEF758F907460020E3
:104B500028702089002801DD268105E0A07A08B9A7
:104B6000268101E0492028703846FEF74BF900BF46
:104B7000E8E70000C5030020B0030020C6030020C2
:104B8000D40300202DE9FC5F814688460020009078
:104B9000FEF734F90090F74850F8280028B1009843
:104BA000FEF730F92820BDE8FC9FB9F1FF0F03D1D3
:104BB000F148006890F82E90EE4850F8294024B94A
:104BC0000098FEF71FF92920EDE7012C04D1009889
:104BD000FEF718F94320E6E74FEAE80708F0070078
:104BE00001900120B84000F0FF0B012101988140A5
:104BF00001F0FF0A0020DF4941F82900084640F88B
:104C0000284094F83060DD48805D94F83110084009
:104C1000E0B1DA48805D94F831108843D74988556F
:104C20000846805D30B994F83210D5480078884342
:104C3000D3490870D248007840EA0B00D049087088
:104C4000CE48C05D40EA0A00CC49C855E569E5B1E7
:104C500005F10B00805D94F83110884305F10B01DC
:104C600088550846805D20B9A87A94F832108843A8
:104C7000A872A87A40EA0B00A87205F10B00C05D8B
:104C800040EA0A0005F10B01C85584F82E8084F82B
:104C90003070019884F82F0084F832B084F831A085
:104CA0000098FEF7AFF8B7480078012801D1FEF769
:104CB000E2FB002077E72DE9FE4F06460F469046BF
:104CC0001C464FF00009FEF799F88146AE4800787F
:104CD000002805DD4846FEF795F83C20BDE8FE8F2C
:104CE000A44850F8240060BB0120A24941F82400E8
:104CF0004846FEF787F80023424639463046FEF71D
:104D0000E7F8824600200090019003460246514693
:104D100002902046FEF783FD054635B99948007894
:104D200001280CD1FEF7A7FB09E0FEF767F88146E2
:104D30000020904941F824004846FEF763F82846D1
:104D4000CCE74846FEF75EF82820C7E702F00103EB
:104D500043B102F002032BB102E0491E002308C058
:104D60000029FAD170472DE9F04F85B081468A4677
:104D700093461C46DDE90F78129D00200390FEF754
:104D80003DF8039080480078002806DD0398FEF780
:104D900039F83C2005B0BDE8F08F764850F8240083
:104DA00088BB0120734941F824000398FEF72AF8D4
:104DB0002A4641463846FFF7C9FF2B465A46514618
:104DC0004846FEF785F804901198CDE900800295D9
:104DD0003A4620460E9B0499FEF721FD064636B959
:104DE0006848007801280CD1FEF745FB09E0FEF782
:104DF00005F8039000205F4941F824000398FEF76E
:104E000001F83046C6E7FFE70398FDF7FBFF2820CF
:104E1000C0E72DE9F04707464FF000095A480078EF
:104E2000002802DD4020BDE8F0871F2F01D13E2081
:104E3000F9E7FDF7E3FF8146FF2F03D14E480068F5
:104E400090F82E704B4850F8274024B94846FDF79B
:104E5000D9FF4320E7E7012C04D14846FDF7D2FFF4
:104E60003D20E0E794F830604448805D94F83110CC
:104E70008843424988550846805D30B994F832101D
:104E80003F48007888433E490870E56985B105F1DF
:104E90000B00805D94F83110884305F10B018855B3
:104EA0000846805D20B9A87A94F832108843A87229
:104EB000D4F82480B8F1000F02D04046FEF710FE6F
:104EC0000020608584F82C0084F82D002F4800789D
:104ED000FF2804D22D480078401C2C490870484611
:104EE000FDF790FFFEF7BFFBFDF788FF81462748DF
:104EF0000078002804DD25480078401E234908700A
:104F00002046FDF7D7FF22480078401E2049087050
:104F10000020184941F82700A06930B900206169D4
:104F200088611C496069086005E0D4E905014861B1
:104F3000D4E905108861184800686061164804606B
:104F40003F2084F848000021492001554846FDF7DC
:104F500059FF0C480078012801D1FEF78CFA002097
:104F600061E72DE9F041044600271F2C16D13E20B1
:104F7000BDE8F0811C790020D4030020CA03002082
:104F8000C9030020CE030020C5030020C603002073
:104F9000CF030020E0030020D8030020FF2C0BD11A
:104FA000FDF72CFF0746D248006890F8336038467A
:104FB000FDF728FF3046DBE7FDF720FF0746CD4829
:104FC00050F8245025B93846FDF71CFF4320CFE7A1
:104FD000012D04D13846FDF715FF3D20C8E73F20DD
:104FE00085F833003846FDF70DFF0020C0E72DE9B6
:104FF000F04706460F4614464FF00008BE480078BA
:10500000002804DD112020700020BDE8F087FDF7A6
:10501000F5FE8046FF2E03D1B548006890F82E605B
:10502000B44850F8265035B94046FDF7EBFE432012
:1050300020700020E9E7012D06D14046FDF7E2FE91
:10504000432020700020E0E705F148013846FDF7D5
:10505000A3FF81464046FDF7D5FE0020207048465C
:10506000D3E72DE9F0470646884614464FF000097D
:10507000A1480078002803DD12202070BDE8F087E9
:10508000FDF7BCFE8146FF2E03D19948006890F8D9
:105090002E60984850F826502DB94846FDF7B2FECC
:1050A00043202070EAE7012D05D14846FDF7AAFE0E
:1050B00043202070E2E74046FDF7AEFF07460F2F82
:1050C00005DD4846FDF79EFE41202070D6E74146AB
:1050D00005F14800FDF760FF4846FDF793FE00200C
:1050E000207000BFCAE770B505460026FDF786FEB2
:1050F0000646804850F8254024B93046FDF782FE28
:10510000462070BD012C04D13046FDF77BFE4320C4
:10511000F7E794F82C0000F0080060B314F82C0FA7
:1051200020F00800207014F82C09F8B9608DC8B977
:105130003034A078714909780843704908702078A4
:105140006F49085C6178084314F830196C4A505470
:105150003046FDF757FE6B480078012809D1FEF76D
:105160008AF906E03046FDF74DFE02E03046FDF7D5
:1051700049FE0020C5E73046FDF744FE4420C0E765
:105180002DE9F04707460D464FF0000A0020286041
:105190006860FDF733FE8246FF2F03D15448006854
:1051A00090F82E70534850F827402CB95046FDF720
:1051B00029FE4320BDE8F087012C04D15046FDF7BD
:1051C00021FE4320F6E7207C00F0010020B9504684
:1051D000FDF718FE4520EDE70026D4F80C90D4F832
:1051E00008805046FDF70EFE00E0761C58F8041BC0
:1051F0000029FAD0B0002860A9EB060080006860A2
:105200000020D7E72DE9F04105464FF00008FDF7F3
:10521000F5FD8046FF2D05D13548006890F82E50E9
:10522000012608E03248006890F82E00A84201D11B
:10523000012600E000262F4850F825402CB94046B2
:10524000FDF7E0FD4820BDE8F081012C04D1404687
:10525000FDF7D8FD4320F6E794F830702848C05D8C
:1052600094F8311088432649C8550846C05D30B9C6
:1052700094F832102148007888432049087094F847
:105280002C0040F0080084F82C004046FDF7BAFDE1
:10529000012E01D1FEF7EFF80020D4E72DE9F0410F
:1052A00005460E460027FDF7A9FD0746FF2D03D151
:1052B0000F48006890F82E500E4850F825402CB941
:1052C0003846FDF79FFD2920BDE8F081012C04D16F
:1052D0003846FDF797FD4320F6E758222146304631
:1052E000FEF793FA3846FDF78DFD0020ECE700004D
:1052F000D40300201C790020C5030020C90300202E
:10530000CA030020CE03002070B50546002667487A
:105310000078002800DD70BD002D23DDFDF76EFD57
:1053200006466348006890F830406248005D604976
:10533000096891F8311088435E4908550846005DB8
:1053400040B95B48006890F832105B4800788843A9
:10535000594908705648006845853046FDF752FDAA
:10536000FEF789F800BFD6E72DE9F04707468846E3
:1053700091461D464D480078002802DD5520BDE8C5
:10538000F0874FF47A7068434FF47A71B0FBF1F113
:105390004FF461607843C8EB081200EB8200484488
:1053A00000EB4002C2EBC01001EBC004260CA4B21B
:1053B0002046FFF7A9FF09E04FF40040FFF7A4FFE4
:1053C0004FF40040FFF7A0FF701E86B2002EF3DC02
:1053D0000020D4E770B5054600261F2D01DB2A20EA
:1053E00070BDFDF70BFD0646344850F8254024B942
:1053F0003046FDF707FD4320F2E7012C04D130468B
:10540000FDF700FD4320EBE7608D20B93046FDF746
:10541000F9FC5020E4E70020608594F82C0000F0AF
:10542000370040B114F82C0F20F037002070012015
:1054300060702C3C02E0002084F82D0094F82C00D1
:1054400000F00800A8B93034A0781B490978084357
:105450001949087020781749085C6178084314F8E6
:105460003019144A50543046FDF7CCFCFEF703F8CF
:1054700002E03046FDF7C6FC0020B1E770B500251C
:10548000FDF7BCFC05460E4804682846FDF7BAFC4B
:10549000204670BD70B504460025FDF7AFFC0546FB
:1054A000074804602846FDF7ADFC70BDC503002029
:1054B000D4030020CA030020C90300201C79002067
:1054C000E803002070B503F0AFF938B1012000F017
:1054D000E0FB032004F025FC00BFFEE703F078FCAE
:1054E00060B1022000F0D5FB032004F01AFC03E0B9
:1054F00003F06EFC00B900E0FAE700BF002003F003
:10550000F3FA38B1032000F0C4FB032004F009FCD7
:1055100000BFFEE7002000F0F7F938B1042000F0EA
:10552000B8FB032004F0FDFB00BFFEE7002402F0FF
:1055300063FC05463CB1062000F09BFB032004F011
:10554000F0FB00BFFEE770BD10B5FDF7D6FB40F6DF
:10555000B83000F003FA042003F09CFD012004F0B1
:10556000B1F8022004F0AEF8032004F0ABF896483E
:1055700000210160818095480160818002F0ECFA91
:1055800004F0FEFB03F01FFC03F082F902F0BFFE03
:1055900004F05DFB00F0FEF9032003F0B1FD40F6DE
:1055A000B83000F0DBF9002005F0EDF805F0DEFE84
:1055B000FFF788FF03F034FC02214FF4165003F08C
:1055C000A9FF022004F04FF80123002211462620F3
:1055D00003F084FD03F07CFC08F0C4F804F000F84C
:1055E00000F016FB40F6B83000F0B8F902F0BBFA54
:1055F00000F035FB40F6B83000F0B0F902F0B3FA35
:1056000000F0B1FC4FF0FF3001F041FB0446704860
:10561000844203D101206F49087035E0B4F1925FF4
:1056200004D105F0C1F905F09EFD2DE0B4F1125F43
:1056300004D105F00BFE00F09EFF25E06648844291
:1056400002D105F022FB1FE0B4F5004F0CD1012080
:1056500000F02FFB07E0614801F08CFA0446B4F536
:10566000804F00D110BDF6E7B4F5000F0CD101203A
:1056700000F001FC07E0594801F07CFA0446B4F55B
:10568000804F00D1EEE7F6E7012000F012FB032087
:1056900004F047FB08F050FC08F0E8FF002005F09C
:1056A00072F805F063FE00BFDCE7F0B597B007467F
:1056B0000E4606F00100002838D001204849087045
:1056C00018226946502000F0E3F8FF22202107A8A5
:1056D0000CF097FC002409E04FF6FF7101EA44103A
:1056E000202207A900F0F2F8601C84B20A2CF3DB38
:1056F00018226946502000F0E9F8A0208DF81C001F
:10570000384800788DF81D00364840788DF81E0026
:10571000032107A804F01BFE8DF81F00042207A92F
:10572000104600F0D3F800202D49087006F0020062
:1057300098B1FF22402107A80CF063FC00250AE085
:105740004FF6FF7101EA8510402207A903F098F98E
:1057500002F009FA6D1C0A2DF2D306F0040008B11C
:1057600003F006FB17B0F0BD70B586B001A8FBF7DB
:1057700012FB4FF47A710298B0FBF1F42146B1F1BB
:10578000807F00D31DE021F07F40401E4FF0E022DB
:10579000506150170F22002807DA13071E0E124B14
:1057A00000F00F052D1F5E5503E013071D0E0F4B74
:1057B0001D5400BF00204FF0E022906107201061CF
:1057C00000BF06B070BD0000EC030020F203002013
:1057D00000001011F80300200000104200C08000FB
:1057E000540000201000002018ED00E000E400E06C
:1057F00070B50446002604F0CFFAAE2004F05BFB3F
:1058000004F0FFFA201204F056FB04F0FAFA2546E1
:10581000E11704EB11610912A4EB0121C8B204F0F5
:105820004AFB04F0EEFA04F0B7FAAF2004F043FBB1
:1058300004F0E7FA002004F066FB064604F0C6FA1E
:10584000304670BD70B504460E4604F0A5FAAE2091
:1058500004F031FB04F0D5FA201204F02CFB04F024
:10586000D0FA2546E11704EB11610912A4EB0121DE
:10587000C8B204F020FB04F0C4FA304604F01BFB6D
:1058800004F0BFFA04F0A2FA142004F06DFA70BD1F
:105890002DE9F04105460E46144600272819C11788
:1058A00000EBD1614F117F2F02D90120BDE8F081BB
:1058B00008E02846FFF79CFF3070681C85B2761C14
:1058C000601E84B2002CF4D10020EFE72DE9F041F6
:1058D00005460E46144600272819C11700EBD16172
:1058E0004F117F2F02D90120BDE8F08108E0317807
:1058F0002846FFF7A7FF681C85B2761C601E84B29D
:10590000002CF4D10020EFE770B504462046FFF7E5
:105910006FFF0546AA212046FFF794FF2046FFF7B8
:1059200067FFAA2801D0012070BD55212046FFF74E
:1059300089FF2046FFF75CFF552801D00120F3E7DF
:1059400029462046FFF77EFF0020EDE701460020B4
:1059500000E0401CB0F57A7FFBD3704706E00021E1
:1059600000E0491CB1F57A7FFBD3401E0028F6D138
:10597000704700000BE000BF00BF00BF00BF00BFCA
:1059800000BF00BF00BF00BF00BF411E88B200289B
:10599000F1DC704710B506222021042003F0A6FA9E
:1059A00006220121042003F0A1FA0622012104208D
:1059B00003F09CFA06220221042003F097FA062243
:1059C0001021042003F092FA06220421032003F0A0
:1059D0008DFA0020FE4908600120FE49C1F88001CF
:1059E0000020FB490860012008600020091D0860B4
:1059F000012008600020F64910310860012008608D
:105A00000020091D0860012008600020086010BD0A
:105A100070B506460C4626B90020ED4910310860E5
:105A200003E00020EA49091D086000251EE000206F
:105A3000E7491431086004F0010040B10622012159
:105A4000042003F053FA0120E149086007E0062230
:105A50000121042003F04AFA0020DD4908600120FA
:105A6000DB49143108606410681CC5B2082DDEDB08
:105A700070BD2DE9F04105460E461746062201216C
:105A8000042003F033FA0120D1490860D149C1F85C
:105A90009401CF49091D08604021FFF7B9FF01209B
:105AA000CC49C1F88401A81EC02202EB4000C1B25B
:105AB0000120FFF7ADFF002409E0315D0120FFF771
:105AC000A7FF00210120FFF7A3FF601CC4B2BC4266
:105AD000F3DB0120BE49091D08608B21FFF798FF09
